{"abi":[{"type":"constructor","inputs":[{"name":"initialOwner","type":"address","internalType":"address"},{"name":"initialTreasury","type":"address","internalType":"address"},{"name":"initialPrizeBps","type":"uint16","internalType":"uint16"}],"stateMutability":"nonpayable"},{"type":"receive","stateMutability":"payable"},{"type":"function","name":"buyFlips","inputs":[{"name":"sessionId","type":"uint256","internalType":"uint256"},{"name":"packageId","type":"uint8","internalType":"uint8"}],"outputs":[],"stateMutability":"payable"},{"type":"function","name":"claimPrize","inputs":[{"name":"sessionId","type":"uint256","internalType":"uint256"}],"outputs":[],"stateMutability":"nonpayable"},{"type":"function","name":"disableFlipPackage","inputs":[{"name":"packageId","type":"uint8","internalType":"uint8"}],"outputs":[],"stateMutability":"nonpayable"},{"type":"function","name":"finalizeSession","inputs":[{"name":"sessionId","type":"uint256","internalType":"uint256"},{"name":"winner","type":"address","internalType":"address"},{"name":"proofHash","type":"bytes32","internalType":"bytes32"}],"outputs":[],"stateMutability":"nonpayable"},{"type":"function","name":"flipPackages","inputs":[{"name":"","type":"uint8","internalType":"uint8"}],"outputs":[{"name":"priceWei","type":"uint256","internalType":"uint256"},{"name":"flips","type":"uint256","internalType":"uint256"},{"name":"active","type":"bool","internalType":"bool"}],"stateMutability":"view"},{"type":"function","name":"maxFinalizeDelaySeconds","inputs":[],"outputs":[{"name":"","type":"uint64","internalType":"uint64"}],"stateMutability":"view"},{"type":"function","name":"operators","inputs":[{"name":"","type":"address","internalType":"address"}],"outputs":[{"name":"","type":"bool","internalType":"bool"}],"stateMutability":"view"},{"type":"function","name":"owner","inputs":[],"outputs":[{"name":"","type":"address","internalType":"address"}],"stateMutability":"view"},{"type":"function","name":"packageCount","inputs":[],"outputs":[{"name":"","type":"uint8","internalType":"uint8"}],"stateMutability":"view"},{"type":"function","name":"prizeBps","inputs":[],"outputs":[{"name":"","type":"uint16","internalType":"uint16"}],"stateMutability":"view"},{"type":"function","name":"renounceOwnership","inputs":[],"outputs":[],"stateMutability":"nonpayable"},{"type":"function","name":"sessions","inputs":[{"name":"","type":"uint256","internalType":"uint256"}],"outputs":[{"name":"started","type":"bool","internalType":"bool"},{"name":"finalized","type":"bool","internalType":"bool"},{"name":"winner","type":"address","internalType":"address"},{"name":"startTime","type":"uint64","internalType":"uint64"},{"name":"endTime","type":"uint64","internalType":"uint64"},{"name":"prizePoolWei","type":"uint256","internalType":"uint256"}],"stateMutability":"view"},{"type":"function","name":"setFlipPackage","inputs":[{"name":"packageId","type":"uint8","internalType":"uint8"},{"name":"priceWei","type":"uint256","internalType":"uint256"},{"name":"flips","type":"uint256","internalType":"uint256"},{"name":"active","type":"bool","internalType":"bool"}],"outputs":[],"stateMutability":"nonpayable"},{"type":"function","name":"setMaxFinalizeDelaySeconds","inputs":[{"name":"secondsDelay","type":"uint64","internalType":"uint64"}],"outputs":[],"stateMutability":"nonpayable"},{"type":"function","name":"setOperator","inputs":[{"name":"operator","type":"address","internalType":"address"},{"name":"allowed","type":"bool","internalType":"bool"}],"outputs":[],"stateMutability":"nonpayable"},{"type":"function","name":"setPrizeBps","inputs":[{"name":"newPrizeBps","type":"uint16","internalType":"uint16"}],"outputs":[],"stateMutability":"nonpayable"},{"type":"function","name":"setTreasury","inputs":[{"name":"newTreasury","type":"address","internalType":"address"}],"outputs":[],"stateMutability":"nonpayable"},{"type":"function","name":"startSession","inputs":[{"name":"sessionId","type":"uint256","internalType":"uint256"}],"outputs":[],"stateMutability":"nonpayable"},{"type":"function","name":"transferOwnership","inputs":[{"name":"newOwner","type":"address","internalType":"address"}],"outputs":[],"stateMutability":"nonpayable"},{"type":"function","name":"treasury","inputs":[],"outputs":[{"name":"","type":"address","internalType":"address"}],"stateMutability":"view"},{"type":"event","name":"FlipPackageDisabled","inputs":[{"name":"packageId","type":"uint8","indexed":true,"internalType":"uint8"}],"anonymous":false},{"type":"event","name":"FlipPackagePurchased","inputs":[{"name":"sessionId","type":"uint256","indexed":true,"internalType":"uint256"},{"name":"buyer","type":"address","indexed":true,"internalType":"address"},{"name":"flips","type":"uint256","indexed":false,"internalType":"uint256"},{"name":"amountWei","type":"uint256","indexed":false,"internalType":"uint256"}],"anonymous":false},{"type":"event","name":"FlipPackageSet","inputs":[{"name":"packageId","type":"uint8","indexed":true,"internalType":"uint8"},{"name":"priceWei","type":"uint256","indexed":false,"internalType":"uint256"},{"name":"flips","type":"uint256","indexed":false,"internalType":"uint256"},{"name":"active","type":"bool","indexed":false,"internalType":"bool"}],"anonymous":false},{"type":"event","name":"MaxFinalizeDelaySet","inputs":[{"name":"secondsDelay","type":"uint64","indexed":false,"internalType":"uint64"}],"anonymous":false},{"type":"event","name":"OperatorSet","inputs":[{"name":"operator","type":"address","indexed":true,"internalType":"address"},{"name":"allowed","type":"bool","indexed":false,"internalType":"bool"}],"anonymous":false},{"type":"event","name":"OwnershipTransferred","inputs":[{"name":"previousOwner","type":"address","indexed":true,"internalType":"address"},{"name":"newOwner","type":"address","indexed":true,"internalType":"address"}],"anonymous":false},{"type":"event","name":"PrizeBpsSet","inputs":[{"name":"prizeBps","type":"uint16","indexed":false,"internalType":"uint16"}],"anonymous":false},{"type":"event","name":"PrizeClaimed","inputs":[{"name":"sessionId","type":"uint256","indexed":true,"internalType":"uint256"},{"name":"winner","type":"address","indexed":true,"internalType":"address"},{"name":"amountWei","type":"uint256","indexed":false,"internalType":"uint256"}],"anonymous":false},{"type":"event","name":"SessionFinalized","inputs":[{"name":"sessionId","type":"uint256","indexed":true,"internalType":"uint256"},{"name":"winner","type":"address","indexed":true,"internalType":"address"},{"name":"endTime","type":"uint64","indexed":false,"internalType":"uint64"},{"name":"proofHash","type":"bytes32","indexed":false,"internalType":"bytes32"}],"anonymous":false},{"type":"event","name":"SessionStarted","inputs":[{"name":"sessionId","type":"uint256","indexed":true,"internalType":"uint256"},{"name":"startTime","type":"uint64","indexed":false,"internalType":"uint64"}],"anonymous":false},{"type":"event","name":"TreasurySet","inputs":[{"name":"treasury","type":"address","indexed":true,"internalType":"address"}],"anonymous":false},{"type":"error","name":"FailedCall","inputs":[]},{"type":"error","name":"FinalizeTooLate","inputs":[]},{"type":"error","name":"InsufficientBalance","inputs":[{"name":"balance","type":"uint256","internalType":"uint256"},{"name":"needed","type":"uint256","internalType":"uint256"}]},{"type":"error","name":"InvalidBps","inputs":[]},{"type":"error","name":"InvalidFlipAmount","inputs":[]},{"type":"error","name":"InvalidPackagePrice","inputs":[]},{"type":"error","name":"InvalidWinner","inputs":[]},{"type":"error","name":"NotOperator","inputs":[]},{"type":"error","name":"NothingToClaim","inputs":[]},{"type":"error","name":"OwnableInvalidOwner","inputs":[{"name":"owner","type":"address","internalType":"address"}]},{"type":"error","name":"OwnableUnauthorizedAccount","inputs":[{"name":"account","type":"address","internalType":"address"}]},{"type":"error","name":"PackageInactive","inputs":[]},{"type":"error","name":"ReentrancyGuardReentrantCall","inputs":[]},{"type":"error","name":"SessionAlreadyFinalized","inputs":[]},{"type":"error","name":"SessionAlreadyStarted","inputs":[]},{"type":"error","name":"SessionNotFinalized","inputs":[]},{"type":"error","name":"SessionNotStarted","inputs":[]},{"type":"error","name":"ZeroAddress","inputs":[]}],"bytecode":{"object":"0x608060405234801562000010575f80fd5b5060405162001729380380620017298339810160408190526200003391620004d7565b826001600160a01b0381166200006257604051631e4fbdf760e01b81525f600482015260240160405180910390fd5b6200006d816200046c565b5060017f9b779b17422d0df92223018b32b4d1fa46e071723d6817e2486d003becc55f00556001600160a01b038216620000ba5760405163d92e233d60e01b815260040160405180910390fd5b61ffff81161580620000d157506127108161ffff16115b15620000f05760405163c6cc5d7f60e01b815260040160405180910390fd5b60048054610100600160b81b0319166101006001600160a01b038581169190910261ffff60a81b191691909117600160a81b61ffff8516021790915560408051606080820183526601c6bf52634000825260fa602080840191825260018486018181525f808052600380855296517f3617319a054d772f909f7c479a2cebe5066e836a939412e32403c99029b92eff5593517f3617319a054d772f909f7c479a2cebe5066e836a939412e32403c99029b92f0055517f3617319a054d772f909f7c479a2cebe5066e836a939412e32403c99029b92f01805460ff19908116921515929092179055865180860188526603328b944c400081526101f481850190815281890184815284875288865291517fa15bc60c955c405d20d9149c709e2460f1c2d9a497496a7f46004d1772c3054c55517fa15bc60c955c405d20d9149c709e2460f1c2d9a497496a7f46004d1772c3054d55517fa15bc60c955c405d20d9149c709e2460f1c2d9a497496a7f46004d1772c3054e805483169115159190911790558651808601885266060a24181e400081526103e8818501908152818901848152600280885289875292517fc3a24b0501bd2c13a7e57f2db4369ec4c223447539fc0724a9d55ac4a06ebd4d5590517fc3a24b0501bd2c13a7e57f2db4369ec4c223447539fc0724a9d55ac4a06ebd4e55517fc3a24b0501bd2c13a7e57f2db4369ec4c223447539fc0724a9d55ac4a06ebd4f8054841691151591909117905587519586018852660b5e620f48000086526107d086850190815286890184815288875297855295517fcbc4e5fb02c3d1de23a9f1e014b4d2ee5aeaea9505df5e855c9210bf472495af5594517fcbc4e5fb02c3d1de23a9f1e014b4d2ee5aeaea9505df5e855c9210bf472495b05594517fcbc4e5fb02c3d1de23a9f1e014b4d2ee5aeaea9505df5e855c9210bf472495b1805487169115159190911790559589168083529281529084902080549093168517909255915192835290917f1a594081ae893ab78e67d9b9e843547318164322d32c65369d78a96172d9dc8f910160405180910390a26040516001600160a01b038316907f3c864541ef71378c6229510ed90f376565ee42d9c5e0904a984a9e863e6db44f905f90a260405161ffff821681527feae9e0bd5a61b0a2653e16c8c0aefbbec95f56a773bd656e362d48a7470199099060200160405180910390a150505062000527565b5f80546001600160a01b038381166001600160a01b0319831681178455604051919092169283917f8be0079c531659141344cd1fd0a4f28419497f9722a3daafe3b4186f6b6457e09190a35050565b80516001600160a01b0381168114620004d2575f80fd5b919050565b5f805f60608486031215620004ea575f80fd5b620004f584620004bb565b92506200050560208501620004bb565b9150604084015161ffff811681146200051c575f80fd5b809150509250925092565b6111f480620005355f395ff3fe60806040526004361061011e575f3560e01c80637fb164ce1161009d578063d709815411610062578063d709815414610419578063ee0ebe0c14610438578063f0f4426014610463578063f2fde38b14610482578063f9f7f47d146104a1575f80fd5b80637fb164ce146102c657806383c4b7a3146102e55780638da5cb5b1461039e578063addab08f146103ba578063d2cc957b146103d9575f80fd5b806361d027b3116100e357806361d027b31461021957806363bdb63514610255578063660dc55914610274578063715018a61461029357806377127612146102a7575f80fd5b8063072a1aee1461012957806313e7c9d814610188578063206e2e96146101c6578063558a7297146101db578063588da7a4146101fa575f80fd5b3661012557005b5f80fd5b348015610134575f80fd5b50610166610143366004610f8b565b60036020525f908152604090208054600182015460029092015490919060ff1683565b6040805193845260208401929092521515908201526060015b60405180910390f35b348015610193575f80fd5b506101b66101a2366004610fc1565b60026020525f908152604090205460ff1681565b604051901515815260200161017f565b6101d96101d4366004610fda565b6104d5565b005b3480156101e6575f80fd5b506101d96101f5366004611013565b610718565b348015610205575f80fd5b506101d961021436600461103b565b6107a6565b348015610224575f80fd5b5060045461023d9061010090046001600160a01b031681565b6040516001600160a01b03909116815260200161017f565b348015610260575f80fd5b506101d961026f366004610f8b565b610943565b34801561027f575f80fd5b506101d961028e36600461106d565b610990565b34801561029e575f80fd5b506101d9610a9f565b3480156102b2575f80fd5b506101d96102c13660046110b0565b610ab2565b3480156102d1575f80fd5b506101d96102e03660046110c7565b610b79565b3480156102f0575f80fd5b506103556102ff3660046110b0565b600160208190525f918252604090912080549181015460029091015460ff808416936101008104909116926201000082046001600160a01b031692600160b01b90920467ffffffffffffffff9081169291169086565b60408051961515875294151560208701526001600160a01b039093169385019390935267ffffffffffffffff9081166060850152909116608083015260a082015260c00161017f565b3480156103a9575f80fd5b505f546001600160a01b031661023d565b3480156103c5575f80fd5b506101d96103d43660046110ee565b610be4565b3480156103e4575f80fd5b5060045461040090600160b81b900467ffffffffffffffff1681565b60405167ffffffffffffffff909116815260200161017f565b348015610424575f80fd5b506101d96104333660046110b0565b610c70565b348015610443575f80fd5b506004546104519060ff1681565b60405160ff909116815260200161017f565b34801561046e575f80fd5b506101d961047d366004610fc1565b610d64565b34801561048d575f80fd5b506101d961049c366004610fc1565b610de4565b3480156104ac575f80fd5b506004546104c290600160a81b900461ffff1681565b60405161ffff909116815260200161017f565b6104dd610e1e565b5f828152600160205260409020805460ff1661050c57604051633c2779e560e01b815260040160405180910390fd5b8054610100900460ff16156105345760405163196d1a1560e11b815260040160405180910390fd5b60ff8083165f9081526003602090815260409182902082516060810184528154815260018201549281019290925260020154909216151590820181905261058e576040516339a1db2960e21b815260040160405180910390fd5b805134146105af57604051632917059360e21b815260040160405180910390fd5b6004545f90612710906105cd90600160a81b900461ffff1634611123565b6105d79190611140565b90505f6105e4823461115f565b905081846002015f8282546105f99190611172565b90915550506004546040515f9161010090046001600160a01b03169083908381818185875af1925050503d805f811461064d576040519150601f19603f3d011682016040523d82523d5f602084013e610652565b606091505b50509050806106a85760405162461bcd60e51b815260206004820152601860248201527f54524541535552595f5452414e534645525f4641494c4544000000000000000060448201526064015b60405180910390fd5b336001600160a01b0316877f73c2d0f70dd643708ea96a2da10703037c2dca3535d7a044f59859bf38936a0d8660200151346040516106f1929190918252602082015260400190565b60405180910390a3505050505061071460015f8051602061119f83398151915255565b5050565b610720610e39565b6001600160a01b0382166107475760405163d92e233d60e01b815260040160405180910390fd5b6001600160a01b0382165f81815260026020908152604091829020805460ff191685151590811790915591519182527f1a594081ae893ab78e67d9b9e843547318164322d32c65369d78a96172d9dc8f91015b60405180910390a25050565b335f9081526002602052604090205460ff166107d557604051631f0853c160e21b815260040160405180910390fd5b5f838152600160205260409020805460ff1661080457604051633c2779e560e01b815260040160405180910390fd5b8054610100900460ff161561082c5760405163196d1a1560e11b815260040160405180910390fd5b6001600160a01b038316610853576040516393a5f3c760e01b815260040160405180910390fd5b600454600160b81b900467ffffffffffffffff16156108b65760045481546108969167ffffffffffffffff600160b81b909104811691600160b01b900416611172565b4211156108b65760405163ae10535d60e01b815260040160405180910390fd5b80546001600160a01b038416620100008102610100600160b01b03199092169190911761010017825560018201805467ffffffffffffffff421667ffffffffffffffff199091168117909155604080519182526020820185905286917f730b9f21bc81c98990e973acbae3330e474e2bc5de7e13811c0034013bf30169910160405180910390a350505050565b61094b610e39565b60ff81165f81815260036020526040808220600201805460ff19169055517f95bcf1d1ca45b1bfe0d12bd9e4cfc9e944af7b4aa6c5c64f11027083148bd5349190a250565b610998610e39565b825f036109b857604051632917059360e21b815260040160405180910390fd5b815f036109d8576040516324f19af960e01b815260040160405180910390fd5b60408051606081018252848152602080820185815284151583850190815260ff8981165f8181526003909552959093209351845590516001840155516002909201805460ff1916921515929092179091556004541611610a5257610a3d846001611185565b6004805460ff191660ff929092169190911790555b604080518481526020810184905282151581830152905160ff8616917fdcd14c773fa059e6f2a94dcb6e3d453be9c21ed06c3971d216c42f928e889994919081900360600190a250505050565b610aa7610e39565b610ab05f610e65565b565b335f9081526002602052604090205460ff16610ae157604051631f0853c160e21b815260040160405180910390fd5b5f818152600160205260409020805460ff1615610b1157604051635a74617160e11b815260040160405180910390fd5b805467ffffffffffffffff428116600160b01b90810260ff67ffffffffffffffff60b01b01199093169290921760011780845560405192900416815282907fbe281bf9220fb46ffe1c8170c28851ef3f0a95c943ec718ae9fc16784cdaf70b9060200161079a565b610b81610e39565b6004805467ffffffffffffffff60b81b1916600160b81b67ffffffffffffffff8416908102919091179091556040519081527f3f6533bb474b03e7592decfc17cec8cd587e62cdf87fa4a82f7b214ff4188aa2906020015b60405180910390a150565b610bec610e39565b61ffff81161580610c0257506127108161ffff16115b15610c205760405163c6cc5d7f60e01b815260040160405180910390fd5b6004805461ffff60a81b1916600160a81b61ffff8416908102919091179091556040519081527feae9e0bd5a61b0a2653e16c8c0aefbbec95f56a773bd656e362d48a74701990990602001610bd9565b610c78610e1e565b5f8181526001602052604090208054610100900460ff16610cac57604051632dbf634960e01b815260040160405180910390fd5b80546201000090046001600160a01b03163314610cdc576040516393a5f3c760e01b815260040160405180910390fd5b60028101545f819003610d02576040516312d37ee560e31b815260040160405180910390fd5b5f6002830155610d123382610eb4565b604051818152339084907f4aa95f981a8337cb337de335b965507da0879c3b49f799d20058e913f5ad2c269060200160405180910390a35050610d6160015f8051602061119f83398151915255565b50565b610d6c610e39565b6001600160a01b038116610d935760405163d92e233d60e01b815260040160405180910390fd5b60048054610100600160a81b0319166101006001600160a01b038416908102919091179091556040517f3c864541ef71378c6229510ed90f376565ee42d9c5e0904a984a9e863e6db44f905f90a250565b610dec610e39565b6001600160a01b038116610e1557604051631e4fbdf760e01b81525f600482015260240161069f565b610d6181610e65565b610e26610f27565b60025f8051602061119f83398151915255565b5f546001600160a01b03163314610ab05760405163118cdaa760e01b815233600482015260240161069f565b5f80546001600160a01b038381166001600160a01b0319831681178455604051919092169283917f8be0079c531659141344cd1fd0a4f28419497f9722a3daafe3b4186f6b6457e09190a35050565b80471015610ede5760405163cf47918160e01b81524760048201526024810182905260440161069f565b610ef7828260405180602001604052805f815250610f56565b15610f00575050565b3d15610f0e57610714610f6b565b60405163d6bda27560e01b815260040160405180910390fd5b5f8051602061119f83398151915254600203610ab057604051633ee5aeb560e01b815260040160405180910390fd5b5f805f83516020850186885af1949350505050565b6040513d5f823e3d81fd5b803560ff81168114610f86575f80fd5b919050565b5f60208284031215610f9b575f80fd5b610fa482610f76565b9392505050565b80356001600160a01b0381168114610f86575f80fd5b5f60208284031215610fd1575f80fd5b610fa482610fab565b5f8060408385031215610feb575f80fd5b82359150610ffb60208401610f76565b90509250929050565b80358015158114610f86575f80fd5b5f8060408385031215611024575f80fd5b61102d83610fab565b9150610ffb60208401611004565b5f805f6060848603121561104d575f80fd5b8335925061105d60208501610fab565b9150604084013590509250925092565b5f805f8060808587031215611080575f80fd5b61108985610f76565b935060208501359250604085013591506110a560608601611004565b905092959194509250565b5f602082840312156110c0575f80fd5b5035919050565b5f602082840312156110d7575f80fd5b813567ffffffffffffffff81168114610fa4575f80fd5b5f602082840312156110fe575f80fd5b813561ffff81168114610fa4575f80fd5b634e487b7160e01b5f52601160045260245ffd5b808202811582820484141761113a5761113a61110f565b92915050565b5f8261115a57634e487b7160e01b5f52601260045260245ffd5b500490565b8181038181111561113a5761113a61110f565b8082018082111561113a5761113a61110f565b60ff818116838216019081111561113a5761113a61110f56fe9b779b17422d0df92223018b32b4d1fa46e071723d6817e2486d003becc55f00a26469706673582212203b6d8910b28f9c008c0e2e61f5984fcb66c68d261cfbd6ff7447d3be16036f3864736f6c63430008180033","linkReferences":{}},"methodIdentifiers":{"buyFlips(uint256,uint8)":"206e2e96","claimPrize(uint256)":"d7098154","disableFlipPackage(uint8)":"63bdb635","finalizeSession(uint256,address,bytes32)":"588da7a4","flipPackages(uint8)":"072a1aee","maxFinalizeDelaySeconds()":"d2cc957b","operators(address)":"13e7c9d8","owner()":"8da5cb5b","packageCount()":"ee0ebe0c","prizeBps()":"f9f7f47d","renounceOwnership()":"715018a6","sessions(uint256)":"83c4b7a3","setFlipPackage(uint8,uint256,uint256,bool)":"660dc559","setMaxFinalizeDelaySeconds(uint64)":"7fb164ce","setOperator(address,bool)":"558a7297","setPrizeBps(uint16)":"addab08f","setTreasury(address)":"f0f44260","startSession(uint256)":"77127612","transferOwnership(address)":"f2fde38b","treasury()":"61d027b3"},"id":26}